:1000000000400020753C0000B13C0000B13C000005
:10001000B13C0000B13C0000B13C00000000000019
:10002000000000000000000000000000B13C0000E3
:10003000B13C000000000000B13C0000B13C0000F9
:10004000B1120000213C00002F3C00003D3C0000AC
:100050004D3C0000B13C0000910B0000450B00003E
:10006000E90F00002D0800003D080000492A0000AB
:10007000572A0000B13C00003D330000412500003C
:1000800071250000B13C0000B13C00008D03000070
:100090005926000079260000B13C0000B13C000068
:1000A00089250000A9250000F12500001126000087
:1000B0005D36000085360000B13C0000B13C000018
:1000C000B13C0000B13C0000B13C0000B13C00007C
:1000D000B13C0000B13C0000B13C0000B13C00006C
:1000E000652A0000A10A0000592500003D0A000011
:1000F000B13C0000B13C0000B13C00000000000039
:1001000000000000000000000000000000000000EF
:1001100000000000000000000000000000000000DF
:10012000B13C0000B13C0000B13C0000B13C00001B
:10013000B13C0000B13C0000B13C0000B13C00000B
:10018000FFFFFFFFFFFFFFFFFFFFFFFFFFFFFFFF7F
:1001900003329CA77F000000FFFFFFFFFFFFFFFF70
:1001A00010B5054C237833B9044B13B10448AFF3B1
:1001B00000800123237010BD000C0420000000000B
:1001C000C8A9000008B5034B1BB103490348AFF3AE
:1001D000008008BD00000000040C0420C8A9000035
:1001E000154B002B08BF134B9D46A3F5803A002109
:1001F0008B460F461348144A121A06F049FA0F4B61
:10020000002B00D098470E4B002B00D098470020C1
:10021000002104000D000D48002802D00C4807F012
:10022000E3FD05F0F9FE2000290003F00BFE05F0C8
:10023000E3FE00BF000008000040002000000000B6
:1002400000000000000C0420C8150420E97D000017
:10025000498D000080B483B000AF0346FB7197F96D
:100260000730002B0BDBFB7903F01F02064997F9DF
:1002700007305B09012000FA02F241F8232000BF99
:100280000C37BD4680BC704700E100E080B584B00B
:1002900000AF0023FB60EFF310837B607B68FB60A3
:1002A00072B61B4B1B7883F00103DBB2002B26D008
:1002B000174B01221A70174B5B68164A43F0010373
:1002C0005360154A134B9A601320FFF7C3FF6FF07A
:1002D0007843BB600F4ABB6813620E4ABB68D362A7
:1002E0000C4ABB6853630B4ABB68D363094ABB68BB
:1002F0009364084ABB68D364064ABB681365FB680D
:100300003B603B6883F3108800BF1037BD4680BD5B
:1003100000140420000001400010042080B489B0C3
:1003200000AF0346B9607A60FB730023FB77164A7F
:10033000FB7BDB0013440433BB61BB69BA681A6002
:10034000BB697A685A60FB7B012202FA03F37B6186
:10035000BB68002B08D00C4BD3F8DC200A497B6922
:100360001343C1F8DC3008E0074BD3F8DC207B698D
:10037000DB4305491340C1F8DC30FB7F18462437C6
:10038000BD4680BC704700BF0014042080B58AB011
:1003900000AF2C4BDB6CFB612A4B9B6CBB61294B88
:1003A0001B6D7B61284BD3F8DC20B9697B690B435B
:1003B00013407B627B6A002B37D020233B617B6A32
:1003C000B3FA83F33B622CE03A693B6AD31A013BF0
:1003D000FB600122FB6802FA03F3BB601A4AFB6868
:1003E000DB00134404337B607B681B68002B0FD059
:1003F000BA69BB681340002B01D0012300E002233F
:100400003B607B681B687A685068002239689847AF
:10041000BB68DB437A6A13407B627B6AB3FA83F37F
:100420003B623A6A3B699A42CED3064ABB699364FF
:10043000044A7B691365034AFB69D36400BF28370C
:10044000BD4680BD000001400014042080B483B08C
:1004500000AF0346FB7197F90730002B0BDBFB79EC
:1004600003F01F02064997F907305B09012000FAE3
:1004700002F241F8232000BF0C37BD4680BC704714
:1004800000E100E080B584B000AF78603960144BC3
:10049000DB68002B1ED1124A7B68D3600023FB600F
:1004A0000FE00F4BDB68FA68002143F832100C4B69
:1004B000DA68FB68DB00134400225A60FB680133F2
:1004C000FB60FB68012BECD90920FFF7BFFF0A2076
:1004D000FFF7BCFF002318461037BD4680BD00BFA4
:1004E0000000042080B487B000AF0346FB710B46C8
:1004F000BB711346BB8000237B61FB79114A52F824
:1005000023303B61EFF31083FB60FB687B6172B6C5
:10051000BB79092B02D00A2B04D007E03B69BA88CB
:100520001A8503E03B69BA889A8500BF7B69BB6086
:10053000BB6883F31088002318461C37BD4680BC77
:10054000704700BF0000042080B485B000AF0346B0
:100550003A60FB710B46BB710023FB81FB790D4AAE
:1005600052F82330BB60BB79092B02D00A2B04D090
:1005700007E0BB681B8DFB8103E0BB689B8DFB81A3
:1005800000BF3B68FA891A80002318461437BD461D
:1005900080BC70470000042080B485B000AF0346E3
:1005A0000A46FB711346BB80FB79064A52F823309A
:1005B000FB60FB68BA889A84002318461437BD464E
:1005C00080BC70470000042080B485B000AF0346B3
:1005D0003960FB71FB79074A52F82330FB60FB68F6
:1005E0009B8C9AB23B681A80002318461437BD468C
:1005F00080BC70470000042080B487B000AF034681
:10060000FB710B46BB801346BB7100237B61FB79FA
:10061000154A52F823303B61EFF31083FB60FB680F
:100620007B6172B6BB79002B08D03B699B889AB27C
:10063000BB8813439AB23B699A8009E03B699B8867
:100640009AB2BB88DB439BB213409AB23B699A8053
:100650007B69BB60BB6883F31088002318461C3796
:10066000BD4680BC704700BF0000042080B487B046
:1006700000AF0346FB710B46BB801346BB710023E2
:100680007B61FB79154A52F823303B61EFF310830D
:10069000FB60FB687B6172B6BB79002B08D03B69BD
:1006A0009B899AB2BB8813439AB23B699A8109E04D
:1006B0003B699B899AB2BB88DB439BB213409AB2D9
:1006C0003B699A817B69BB60BB6883F31088002318
:1006D00018461C37BD4680BC704700BF0000042090
:1006E00080B485B000AF03460A46FB711346BB8059
:1006F000FB79064A52F82330FB60FB68BA881A83FC
:10070000002318461437BD4680BC70470000042003
:1007100080B485B000AF03460A46FB711346BB8028
:10072000FB79064A52F82330FB60FB68BA889A834B
:10073000002318461437BD4680BC704700000420D3
:1007400080B489B000AF0346B9607A60FB730023C0
:10075000FB830023BB61FB7B9BB2093BFB83EFF375
:1007600010833B613B69BB6172B60C4BDB68FA8B53
:10077000B96843F83210094BDA68FB8BDB0013448D
:100780007A685A60BB697B617B6983F310880023B8
:1007900018462437BD4680BC704700BF00000420C7
:1007A00080B586B000AF03460A46FB711346BB71A5
:1007B0001D4BDA68FB79DB0013443B610023FB75BA
:1007C0002BE0FB7D184A52F82330FB6097F9063086
:1007D000092B03D1FB681B8DBB8202E0FB689B8D5C
:1007E000BB82FB681B8E9AB2BB8A13409BB27B8193
:1007F0007A89FB681A863B691B68002B0AD07B89C3
:10080000002B07D03B691B683A695068F97D07F1F6
:100810000A029847FB7D0133FB75FB7D022BD0D983
:1008200000BF1837BD4680BD0000042080B500AF72
:1008300009210020FFF7B4FF00BF80BD80B500AFE5
:100840000A210120FFF7ACFF00BF80BD80B483B058
:1008500000AF0346FB7197F90730002B0BDBFB79E8
:1008600003F01F02064997F907305B09012000FADF
:1008700002F241F8232000BF0C37BD4680BC704710
:1008800000E100E080B500AF284B4CF61432DA608E
:10089000264B02221A61264B00221A60234B4CF68B
:1008A0001432DA60214B1B69204A43F002031361C2
:1008B00000BF1E4B1B6903F40073002BF9D01D4BC6
:1008C0001B681C4A23F0030313601A4B00221A60B2
:1008D000184B194A5A60174B46F61A02DA60154B44
:1008E0001F225A61154B00221A60144B00229A6095
:1008F000124B00225A640D4B4CF61432DA600B4B4B
:100900001B690A4A23F0040313610620FFF79EFFC8
:100910000720FFF79BFF2920FFF798FF2B20FFF709
:1009200095FF03F0C9F90023184680BD00C10440BB
:10093000E014042000C304400404100000C004407C
:1009400080B584B000AF03463960FB7103F0B4F9A1
:10095000134B1B68BB60FB79002B07D0012B0CD11C
:10096000104B5B6803F03F03FB6008E00D4B5B68D6
:100970001B0A03F03F03FB6001E004230BE0FB686C
:10098000002B01D10123FB60BA68FB68B2FBF3F2D4
:100990003B681A60002318461037BD4680BD00BF73
:1009A0001415042000C3044080B588B000AF03468E
:1009B0000A46FB711346BB8000237B61FB79012B48
:1009C00004D0022B0ED0002B05D012E03F23FB6198
:1009D000BB88BB610FE04FF47C53FB61BB881B02FB
:1009E000BB6108E04FF47F03FB61BB881B04BB6164
:1009F00001E004231CE0EFF31083BB60BB687B6164
:100A000072B60D4B5B683B61FB69DB433A6913408F
:100A10003B613A69BB6913433B61074A3B695360D9
:100A20007B69FB60FB6883F3108803F045F90023C2
:100A300018462037BD4680BD00C3044080B582B053
:100A400000AF144B9B6903F006037B60124B1B68DD
:100A5000002B18D07B6803F00403002B07D00E4B4B
:100A60001B680E4A10680022082198470BE07B683B
:100A700003F00203002B06D0074B1B68074A1068DF
:100A8000002207219847034A7B68936100BF08371B
:100A9000BD4680BD00C30440E0140420E4140420DB
:100AA00080B582B000AF244B9B6903F4CC433B601C
:100AB00000237B60214B1B68002B33D03B68002B4D
:100AC00030D03B6803F48043002B04D07B6843F0B4
:100AD00004037B601CE03B6803F40053002B04D04C
:100AE0007B6843F003037B6012E03B6803F4007310
:100AF000002B04D07B6843F005037B6008E03B6873
:100B000003F48063002B03D07B6843F006037B6013
:100B10007B68002B06D0094B1B68094A106800222D
:100B2000796898473B68002B02D0034A3B68936181
:100B300000BF0837BD4680BD00C30440E014042058
:100B4000E414042080B582B000AF0E4B5B687B607C
:100B50007B6803F00103002B10D00B4B1B68002BAC
:100B600006D0094B1B68094A10680022796898472B
:100B7000044B5B68034A43F00103536000BF08372E
:100B8000BD4680BD00C00440E0140420E4140420ED
:100B900080B582B000AF154B5B687B60144B1B685F
:100BA000002B17D07B6803F00403002B06D0104BFA
:100BB0001B68104A10680022002198477B6803F0E8
:100BC0000203002B06D00A4B1B680A4A1068002259
:100BD00001219847054B5A687B6803F006030349D7
:100BE00013434B6000BF0837BD4680BD00C00440C2
:100BF000E0140420E414042080B48FB000AF034656
:100C00003960FB711346BB7100237B6300233B6398
:100C10000023FB623B68002B05D17B6B43F0020392
:100C20007B63404B3B60FB79032B1CD801A252F83D
:100C300023F000BF490C0000450C0000530C0000DD
:100C40005D0C0000002367E03B6B43F006033B6351
:100C50000BE07B6B43F004037B6306E07B6B43F0AC
:100C600006037B6301E0062356E0EFF31083BB61CC
:100C7000BB69FB6272B62C4B44F65902DA602A4B10
:100C80009B6823F00302FB79274913438B60274BB2
:100C90001A697B6B1A433B6BDB43244913400B619E
:100CA000EFF31183FB61FB69BB62214B1B89FB8462
:100CB000BB795B013B623B6A83F311880DE0BFF3B4
:100CC0004F8F30BFFB6A3B613B6983F31088EFF3C2
:100CD00010837B617B69FB6272B63B681B68002BEB
:100CE000EDD03B681B685A1E3B681A60BB6ABB604C
:100CF000BB6883F311880E4AFB8C13810B4B1B6975
:100D00000A4A23F002031361BFF34F8FFB6AFB60B3
:100D1000FB6883F31088002318463C37BD4680BC2F
:100D2000704700BFE814042000C0044000ED00E05C
:100D3000002C004080B487B000AF786000237B6156
:100D40007B68002B14D1104B7B60EFF31083FB60AA
:100D5000FB687B6172B60D4B1B690C4A23F00203E2
:100D60001361BFF34F8F7B693B613B6983F310884D
:100D70007B681B685A1C7B681A60002318461C3766
:100D8000BD4680BC704700BFE814042000ED00E0C1
:100D900080B489B000AFF860B9601346FB71FB689E
:100DA000BB6100BFBB691B681B899BB203F080035A
:100DB000002BF7D100BFBB691B689B8D9BB203F46E
:100DC0008053002BF7D10023FB77724B00221A804F
:100DD000714B00221A80714B00221A80704B002246
:100DE0001A80704B00221A8020E0BB6803F00103D8
:100DF000002B15D0FB7F6C4A52F833307B61FB7FB0
:100E0000694ADB0013449B887B827B691A887B8A52
:100E1000012101FA03F39BB213439AB27B691A8052
:100E2000BB685B08BB60FB7F0133FB77BB68002BB3
:100E3000DBD1FB79002B3DD0BB691B681B8899B2C5
:100E4000544B1A88BB691B680A4392B21A80BB696B
:100E50001B681B8D99B2504B1A88BB691B680A43EB
:100E600092B21A85BB691B68B3F8503099B24B4BEC
:100E70001A88BB691B680A4392B2A3F85020BB6969
:100E80001B68B3F8543099B2454B1A88BB691B688C
:100E90000A4392B2A3F85420BB691B68B3F84C30E4
:100EA00099B2404B1A88BB691B680A4392B2A3F8F7
:100EB0004C2055E0BB691B681B889BB21AB2354BAE
:100EC0001B881BB2DB431BB213401AB2BB691B6801
:100ED00092B21A80BB691B681B8D9BB21AB22E4B53
:100EE0001B881BB2DB431BB213401AB2BB691B68E1
:100EF00092B21A85BB691B68B3F850309BB21AB224
:100F0000264B1B881BB2DB431BB213401AB2BB69D2
:100F10001B6892B2A3F85020BB691B68B3F8543029
:100F20009BB21AB21E4B1B881BB2DB431BB2134091
:100F30001AB2BB691B6892B2A3F85420BB691B6844
:100F4000B3F84C309BB21AB2164B1B881BB2DB4372
:100F50001BB213401AB2BB691B6892B2A3F84C20B3
:100F600000BFBB691B689B889BB203F08003802B8A
:100F7000F7D100BFBB691B689B8D9BB203F4804314
:100F8000B3F5804FF6D1002318462437BD4680BC08
:100F9000704700BFEC140420EE140420F014042069
:100FA000F2140420F41404202800042080B487B034
:100FB00000AFF860B9607A60FB687B6100BF7B6955
:100FC0001B681B899BB203F08003002BF7D17B6960
:100FD000BA685A607B697A689A60002318461C37A1
:100FE000BD4680BC7047000080B586B000AF0023CE
:100FF0007B6100233B619B4B9B68FB60FB681B682C
:101000001B889BB21A464FF6040313403B61FB68F2
:101010001B689B889BB203F07E037B817B89002B3E
:1010200056D03B69002B53D03B6903F01003002BD3
:1010300008D07B8903F00403002B03D07B6943F0C5
:1010400002037B613B6903F00403002B08D07B891A
:1010500003F00203002B03D07B6943F001037B61A3
:101060003B6903F48053002B08D07B8903F008030D
:10107000002B03D07B6943F004037B613B6903F4DD
:101080000043002B08D07B8903F04003002B03D0E2
:101090007B6943F020037B613B6903F48043002BB1
:1010A00008D07B8903F02003002B03D07B6943F039
:1010B00010037B613B6903F40053002B08D07B894C
:1010C00003F01003002B03D07B6943F008037B611E
:1010D000FB681B681B8D9BB203F01F033B61FB6821
:1010E0001B689B8D9BB203F00F033B813B89002B58
:1010F0003AD03B69002B37D03B6903F00803002B43
:1011000008D03B8903F00803002B03D07B6943F42C
:1011100000737B613B6903F00403002B08D03B891B
:1011200003F00403002B03D07B6943F480737B61DD
:101130003B6903F00203002B08D03B8903F0020354
:10114000002B03D07B6943F080037B613B6903F094
:101150000103002B08D03B8903F00103002B03D0CF
:101160007B6943F040037B61FB681B68B3F8503038
:101170009BB21A4641F6FE7313403B61FB681B6845
:10118000B3F848309AB240F21D331340FB80FB881D
:10119000002B10D03B69002B0DD03B6903F400738A
:1011A000002B08D0FB8803F40073002B03D07B696D
:1011B00043F400637B61FB681B68B3F850309BB25B
:1011C0001A464FF21C4313403B61FB88002B3AD078
:1011D0003B69002B37D03B6903F48043002B08D0D8
:1011E000FB8803F01003002B03D07B6943F48023BA
:1011F0007B613B6903F40053002B08D0FB8803F0AC
:101200000803002B03D07B6943F400337B613B6907
:1012100003F48053002B08D0FB8803F00403002B59
:1012200003D07B6943F480337B613B6903F48063C3
:10123000002B08D0FB8803F00103002B03D07B694F
:1012400043F400437B61FB685B68002B0CD07B6937
:10125000002B09D0FB685B68FA6890680022796906
:10126000984701E010000420FB681B689B8899B236
:10127000FB681B687A890A4392B29A80FB681B68F4
:101280009B8D99B2FB681B683A890A4392B29A8592
:10129000FB681B68B3F8483099B2FB681B68FA8892
:1012A0000A4392B2A3F8482000BF1837BD4680BD5C
:1012B00080B586B000AF00237B6100233B61A24B69
:1012C0005B69FB60FB681B681B889BB21A464FF684
:1012D000040313403B61FB681B689B889BB203F0CF
:1012E0007E037B817B89002B56D03B69002B53D03A
:1012F0003B6903F01003002B08D07B8903F0040343
:10130000002B03D07B6943F002037B613B6903F050
:101310000403002B08D07B8903F00203002B03D0C9
:101320007B6943F001037B613B6903F48053002B2D
:1013300008D07B8903F00803002B03D07B6943F0BE
:1013400004037B613B6903F40043002B08D07B89D5
:1013500003F04003002B03D07B6943F020037B6143
:101360003B6903F48043002B08D07B8903F0200302
:10137000002B03D07B6943F010037B613B6903F4CE
:101380000053002B08D07B8903F01003002B03D0FF
:101390007B6943F008037B61FB681B681B8D9BB274
:1013A00003F01F033B61FB681B689B8D9BB203F03E
:1013B0001F033B813B89002B48D03B69002B45D064
:1013C0003B6903F01003002B08D03B8903F01003A6
:1013D000002B03D07B6943F480637B613B6903F09E
:1013E0000803002B08D03B8903F00803002B03D02F
:1013F0007B6943F400737B613B6903F00403002BBA
:1014000008D03B8903F00403002B03D07B6943F42D
:1014100080737B613B6903F00203002B08D03B899A
:1014200003F00203002B03D07B6943F080037B6150
:101430003B6903F00103002B08D03B8903F0010353
:10144000002B03D07B6943F040037B61FB681B6882
:10145000B3F850309BB21A4641F6FE7313403B611D
:10146000FB681B68B3F848309AB240F21D33134052
:10147000FB80FB88002B10D03B69002B0DD03B6913
:1014800003F40073002B08D0FB8803F40073002BD7
:1014900003D07B6943F400637B61FB681B68B3F88E
:1014A0004C309BB21A464FF21C4313403B61FB8801
:1014B000002B3AD03B69002B37D03B6903F48043C3
:1014C000002B08D0FB8803F01003002B03D07B69AE
:1014D00043F480237B613B6903F40053002B08D065
:1014E000FB8803F00803002B03D07B6943F400332F
:1014F0007B613B6903F48053002B08D0FB8803F029
:101500000403002B03D07B6943F480337B613B6988
:1015100003F48063002B08D0FB8803F00103002B49
:1015200003D07B6943F400437B61FB685B68002B5D
:101530000CD07B69002B09D0FB685B68FA68906867
:1015400000227969984701E010000420FB681B68BD
:101550009B8899B2FB681B687A890A4392B29A8089
:10156000FB681B689B8D99B2FB681B683A890A432C
:1015700092B29A85FB681B68B3F8483099B2FB6851
:101580001B68FA880A4392B2A3F8482000BF1837B4
:10159000BD4680BD80B483B000AF0346FB7197F9B0
:1015A0000730002B0BDBFB7903F01F02064997F98C
:1015B00007305B09012000FA02F241F8232000BF46
:1015C0000C37BD4680BC704700E100E080B483B0BA
:1015D00000AF0346FB7197F90730002B10DBFB7956
:1015E00003F01F02094997F907305B09012000FA4F
:1015F00002F2203341F82320BFF34F8FBFF36F8FE8
:1016000000BF0C37BD4680BC704700BF00E100E062
:1016100080B586B000AFF860B9607A603B60BB68A7
:101620007B617A680021B86805F032F8FA681346E1
:101630009B0013449B002D4A1A447B695A602B4936
:10164000FA6813469B0013449B000B441033BA689E
:101650001A602649FA6813469B0013449B000B440A
:1016600008331A687B691A607B6900229A62FB68FA
:101670009B001F4A13443B617B691B683A691288CF
:101680001A827B691B683A6952889A813B687A6939
:101690001A607B691B681B8A9AB27B691B6842F0DF
:1016A000010292B21A82FEF7F1FD7B695B685B88EA
:1016B000DBB27A690F491846FEF730FE0346002B6D
:1016C00001D00E230EE07B695B68DB88DBB27A69B0
:1016D00009491846FEF722FE0346002B01D00E23CF
:1016E00000E0002318461837BD4680BDB80004202E
:1016F00068A60000CF2400005D24000080B483B001
:1017000000AF78600B46FB70FB78002B0AD07B683B
:101710001B681B8A9AB27B681B6842F4006292B213
:101720001A8209E07B681B681B8A9AB27B681B6877
:1017300022F4006292B21A82002318460C37BD468A
:1017400080BC704780B487B000AF78600B46FB70F8
:1017500000237B61EFF310833B613B697B6172B6D1
:10176000FB78002B0AD07B681B681B8A9AB27B68C7
:101770001B6842F0020292B21A8219E07B681B6871
:1017800000221A837B681B681B8A9AB27B681B68DD
:1017900022F0020292B21A827B681B681B8A9BB2FB
:1017A0007A68126843F4207343F001039BB21382FA
:1017B0007B69FB60FB6883F31088002318461C37A5
:1017C000BD4680BC704780B584B000AF786039609A
:1017D00007F1080319460020FFF7B2F80346002B73
:1017E00001D003231BE03B685A00BB689A4201D931
:1017F0000C2314E0BA683B68B2FBF3F35B089BB2BE
:10180000013BFB81FA89FB8903F03F039A4201D037
:10181000072304E07B681B68FA899A810023184635
:101820001037BD4680BD80B586B000AF78603960A6
:101830007B681B689B899BB27B6107F10C0319468F
:101840000020FFF77DF80346FB74FB7C002B04D0DF
:101850003B6800221A60012308E0FA687B690133C3
:10186000B2FBF3F35A083B681A6000231846183796
:10187000BD4680BD80B483B000AF78600B46FB707E
:10188000FB78002B0AD07B681B681B8A9AB27B68A6
:101890001B6842F0080292B21A8209E07B681B685A
:1018A0001B8A9AB27B681B6822F0080292B21A82E5
:1018B000002318460C37BD4680BC704780B483B007
:1018C00000AF78600B46FB707B68FA7883F82620BF
:1018D000002318460C37BD4680BC704780B483B0E7
:1018E00000AF78600B46FB70FB78002B0AD07B685A
:1018F0001B681B8A9AB27B681B6842F0040292B292
:101900001A8209E07B681B681B8A9AB27B681B6895
:1019100022F0040292B21A82002318460C37BD4608
:1019200080BC704780B584B000AF786039607B6858
:10193000012283F825203968786800F014F80346FE
:10194000FB737B68002283F82520FB7B002B05D1ED
:101950007B681B69002B01D00F23FB73FB7B1846B0
:101960001037BD4680BD80B584B000AF7860396067
:1019700000237B733B681A687B685A613B685A682E
:101980007B689A613B681A897B689A833B685A89AD
:101990007B68DA833B681A7B7B6883F820203B688E
:1019A0005A7B7B6883F821203B689A7B7B6883F8AD
:1019B00023203B68DA7B7B6883F824207B68002245
:1019C00083F822207B6800221A617B681B681B8ACF
:1019D0009AB27B681B6822F4415292B21A827B68E9
:1019E00093F82330002B19D07B68DB8B002B0AD0B7
:1019F0007B681B689B8A9AB27B681B6822F4005242
:101A000092B29A8235E07B681B689B8A9AB27B68A7
:101A10001B6842F4005292B29A822AE04FF40053BB
:101A2000FB817B689B8B002B03D0FB8943F4007305
:101A3000FB817B68DB8B002B03D0FB8943F4806345
:101A4000FB817B681B689B8A99B27B681B68FA895B
:101A50000A4392B29A827B68DB8B002B09D17B68A8
:101A60001B681B8A9AB27B681B6842F0400292B2E4
:101A70001A827B681B681B889BB27B817B681B6812
:101A80007A8992B21A807B681B681B8A9AB27B683B
:101A90001B6842F0020292B21A827B6893F82620F9
:101AA0007B681B6892B21A863968786800F018F86B
:101AB0007B6893F82530002B0DD07B6828330022FB
:101AC00019460020FFF798F803463B733B7B002B39
:101AD00001D00D2300E07B7B18461037BD4680BD4A
:101AE00080B588B000AF786039607B6893F82330A8
:101AF000002B0CD07B6893F82430002B07D03B6878
:101B00005B89012B03D17B68002283F823207B684B
:101B10001B681B8A9AB27B681B6842F4405292B2DF
:101B20001A827B681B681B8A9AB27B681B6822F446
:101B3000405292B21A827B681B689B8B9AB27B6878
:101B40001B6822F0070292B29A830023BB837B6852
:101B500093F82330002B00F0B9800123BB833B684E
:101B60001B897B837B8B002B55D07B685B685B88F4
:101B7000FB827B685B681B885BB21846FFF70AFD37
:101B8000FB8A9A4A012101FA03F3C2F81438FB8A4E
:101B9000964A012101FA03F39362FB8A934A0121D9
:101BA00001FA03F35362FB8A904A012101FA03F31D
:101BB00053637B8B03F00103002B02D07B8B01333B
:101BC0007B833B681A687B8B023BD118884B1A6871
:101BD000FB8A1B0113440A461A607B681B6803F1E9
:101BE0000801834B1A68FB8A1B0113440A465A609A
:101BF0007B8B5B089BB2013B1B017D4A1168FA8A13
:101C000012010A4443F0454343F001039360BB8B48
:101C100043F00203BB833B685B897B837B8B002B98
:101C200054D07B685B68DB88BB827B685B689B8881
:101C30005BB21846FFF7AEFCBB8A6C4A012101FA81
:101C400003F3C2F81C38BB8A684A012101FA03F386
:101C50009362BB8A654A012101FA03F35362BB8A8E
:101C6000624A012101FA03F353637B8B03F0010302
:101C7000002B02D07B8B01337B837B681B68191D93
:101C80005B4B1A68BB8A1B0113440A461A603B6807
:101C90005A687B8B023BD118554B1A68BB8A1B01D3
:101CA00013440A465A607B8B5B089BB2013B1B01C5
:101CB0004F4A1168BA8A12010A4443F09A4343F02A
:101CC00001039360BB8B43F00403BB837B681B68F9
:101CD00000229A847B6893F82430002B2DD07B68F7
:101CE0009B8B013B3B617B681B689B8C9AB27B683A
:101CF0001B6822F0F00292B29A847B681B689B8C6E
:101D00009AB23B699BB29B009BB213439AB27B6829
:101D10001B6842F0010292B29A847B681B681B8A9E
:101D20009AB27B681B6842F4006292B21A827B68A6
:101D30001B687A68D28B1A8328E07B68DB8B002BC8
:101D40000AD17B681B681B8A9AB27B681B6842F4C5
:101D5000805292B21A820DE07B689B8B002B09D1D6
:101D60007B681B681B8A9AB27B681B6842F400522E
:101D700092B21A827B689A8B7B68DB8B934238BF66
:101D80001346FB837B681B68FA8B1A837B6893F886
:101D9000233083F00103DBB2002B2BD07B685B691F
:101DA000002B55D00023FB8317E07B685B691A7812
:101DB0007B681B6892B21A817B685B697A6892F8CB
:101DC00020201A447B685A617B689B8B013B9AB246
:101DD0007B689A83FB8B0133FB83FB8B072B37D804
:101DE0007B689B8B002BE0D132E000BF00000140FC
:101DF00064A600007B681B689B8B99B27B681B689C
:101E0000BA8B0A4392B29A837B6893F82330002BF3
:101E10001ED03B681B89002B1AD000233B8312E0A5
:101E20007B681B681B8C9BB27B817B899BB203F018
:101E30000F039BB2C3F10803FB81FB89002B06D182
:101E40003B8B01333B833B8B632BE9D900E000BF25
:101E50007B681B681B8A9BB203F04003402B03D0B6
:101E60007B681B689B88BB817B685B6893F90C303F
:101E70001846FFF78FFB00BF2037BD4680BD00BF6F
:101E800080B588B000AF786039600023FB617B6863
:101E90001B681B8A9AB27B681B6842F4405292B25C
:101EA0001A827B681B681B8A9AB27B681B6822F4C3
:101EB000405292B21A827B681B689B8B9AB27B68F5
:101EC0001B6822F0070292B29A837B68002283F893
:101ED00022203B681A687B685A613B685A687B68B5
:101EE0009A613B681A897B689A833B685A897B6848
:101EF000DA833B681A7B7B6883F820203B685A7B37
:101F00007B6883F821203B689A7B7B6883F82320D9
:101F10003B68DA7B7B6883F824207B6800221A61A7
:101F20007B681B681B8A9AB27B681B6822F461522B
:101F300092B21A827B689B8B002B09D17B681B684D
:101F40001B8A9AB27B681B6842F4005292B21A82D2
:101F50007B68DB8B002B1BD17B681B681B8A9AB2CA
:101F60007B681B6842F4805292B21A827B6893F8B5
:101F7000233083F00103DBB2002B09D07B681B68A0
:101F80001B8A9AB27B681B6842F0400292B21A82A6
:101F90007B68D98B7B689A8B7B681B688A4238BFC9
:101FA0000A4692B21A8300237B837B6893F823301E
:101FB000002B00F0B7803B681B893B833B8B002BD9
:101FC00055D07B685B685B88BB827B685B681B88DD
:101FD0005BB21846FFF7DEFABB8A9B4A012101FA81
:101FE00003F3C2F81438BB8A974A012101FA03F3BC
:101FF0009362BB8A944A012101FA03F35362BB8ABC
:10200000914A012101FA03F353633B8B03F001036F
:10201000002B02D03B8B01333B833B681A683B8B20
:10202000023BD118894B1A68BB8A1B0113440A462C
:102030001A607B681B6803F10801844B1A68BB8A2D
:102040001B0113440A465A603B8B5B089BB2013B61
:102050001B017E4A1168BA8A12010A4443F04543C3
:1020600043F0010393607B8B43F002037B833B6867
:102070005B893B833B8B002B54D07B685B68DB88A0
:102080007B827B685B689B885BB21846FFF782FAAD
:102090007B8A6D4A012101FA03F3C2F81C387B8A5E
:1020A000694A012101FA03F393627B8A664A01219E
:1020B00001FA03F353627B8A634A012101FA03F3B5
:1020C00053633B8B03F00103002B02D03B8B0133A6
:1020D0003B837B681B68191D5C4B1A687B8A1B015C
:1020E00013440A461A603B685A683B8B023BD1187E
:1020F000564B1A687B8A1B0113440A465A603B8B75
:102100005B089BB2013B1B01504A11687A8A12019D
:102110000A4443F09A4343F0010393607B8B43F0FE
:1021200004037B837B681B689B8A9AB27B681B686D
:1021300022F4005292B29A827B6893F8233083F0A3
:102140000103DBB2002B46D07B681B681B8A9AB266
:102150007B681B6822F4006292B21A820023FB8221
:102160007B689B8B002B03D0FB8A43F40073FB82BC
:102170007B68DB8B002B03D0FB8A43F48063FB82FC
:102180007B681B689B8A99B27B681B68FA8A0A4342
:1021900092B29A8217E07B685B691A787B681B6849
:1021A00092B21A817B685B697A6892F820201A449F
:1021B0007B685A617B689B8B013B9AB27B689A83F0
:1021C000FB690133FB61FB69072B11D87B689B8B93
:1021D000002BE0D10CE07B681B689B8B9AB27B8B59
:1021E00013439AB27B681B6842F0010292B29A8351
:1021F0007B681B681B8A9BB203F04003402B04D012
:102200007B681B689B889BB2FB817B685B6893F94A
:102210000C301846FFF7BEF97B6893F82530002B89
:102220000DD07B682833002219460020FEF7E4FC1D
:1022300003467B747B7C002B01D0092300E0002344
:1022400018462037BD4680BD0000014064A600004E
:1022500080B584B000AF786039607B68012283F874
:10226000252039687868FFF70BFE0346FB737B680F
:10227000002283F82520FB7B002B05D17B681B699E
:10228000002B01D00F23FB73FB7B18461037BD4694
:1022900080BD80B586B000AF78600023FB747B689A
:1022A0001B681B883B827B681B683A8A1A807B68A4
:1022B0001B681B8CFB813B8A03F090039BB2002BB5
:1022C0001AD03B8A03F010039BB2002B05D07B6829
:1022D0001B6943F001027B681A613B8A03F08003AB
:1022E0009BB2002B05D07B681B6943F002027B6820
:1022F0001A610123FB7459E0FB8903F00F039BB2C1
:10230000C3F10803FB82FB891B0A9BB203F00F0396
:10231000BB8217E07B685B691A787B681B6892B2A6
:102320001A817B685B697A6892F820201A447B687E
:102330005A617B689B8B013B9AB27B689A83FB8ACC
:10234000013BFB82FB8A002B03D07B689B8B002B1D
:10235000E0D17B6893F8243083F00103DBB2002BDB
:102360001DD17B689B8B002B20D118E07B681B68FC
:102370009B889AB27B689B69D2B21A707B689B6912
:102380007A6892F821201A447B689A617B68DB8B1B
:10239000013B9AB27B68DA83BB8A013BBB82BB8A72
:1023A000002B03D07B68DB8B002BDFD17B68DB8BC2
:1023B000002B1DD17B689B8B002B19D17B681B6880
:1023C0001B8A9BB203F00203022B0FD13B8A03F05E
:1023D0000203002B07D17B681B681B889BB203F0AC
:1023E0000203022B04D10123FB7401E00123FB74DF
:1023F000FB7C002B2ED07B681B689B8A9AB27B6883
:102400001B6822F4185292B29A827B68012283F8E8
:1024100022207B685B6893F90C301846FFF7D6F8EA
:102420007B681B681B883B827B681B683A8A1A8022
:102430007B689B68002B08D07B689B687A68D068B3
:102440007A6811690022984704E07B6828331846AF
:10245000FEF770FC00BF1837BD4680BD80B586B062
:1024600000AFF860B9607A60FB687B61BB68012BE4
:1024700002D0022B07D00DE07B691B6943F00402F8
:102480007B691A610DE07B691B6943F010027B696F
:102490001A6106E07B691B6943F040027B691A619F
:1024A00000BF7B699B68002B08D07B699B687A69B9
:1024B000D0687A6911690022984704E07B69283363
:1024C0001846FEF737FC00BF1837BD4680BD80B503
:1024D00086B000AFF860B9607A607B687B61BB68EA
:1024E000012B02D0022B07D00DE07B691B6943F062
:1024F00008027B691A610DE07B691B6943F02002C9
:102500007B691A6106E07B691B6943F080027B6985
:102510001A6100BF7B699B68002B08D07B699B68B0
:102520007A69D0687A6911690022984704E07B696A
:1025300028331846FEF7FEFB00BF1837BD4680BDA6
:1025400080B500AF034B1B691846FFF7A2FE00BF22
:1025500080BD00BFB800042080B500AF034B5B6AAC
:102560001846FFF796FE00BF80BD00BFB8000420EC
:1025700080B500AF034B9B6B1846FFF78AFE00BF88
:1025800080BD00BFB800042080B483B000AF054B0D
:102590001B697B607B6800229A8300BF0C37BD46B5
:1025A00080BC7047B800042080B483B000AF0F4BEC
:1025B0001B697B607B680022DA837B681B689B8BCE
:1025C0009AB27B681B6822F0070292B29A837B68FA
:1025D0001B689B8A9AB27B681B6842F4005292B2D5
:1025E0009A8200BF0C37BD4680BC7047B8000420FB
:1025F00080B483B000AF054B5B6A7B607B680022D0
:102600009A8300BF0C37BD4680BC7047B8000420D9
:1026100080B483B000AF0F4B5B6A7B607B680022A5
:10262000DA837B681B689B8B9AB27B681B6822F0FD
:10263000070292B29A837B681B689B8A9AB27B6876
:102640001B6842F4005292B29A8200BF0C37BD461A
:1026500080BC7047B800042080B483B000AF054B45
:102660009B6B7B607B6800229A8300BF0C37BD4662
:1026700080BC7047B800042080B483B000AF0F4B1B
:102680009B6B7B607B680022DA837B681B689B8B7B
:102690009AB27B681B6822F0070292B29A837B6829
:1026A0001B689B8A9AB27B681B6842F4005292B204
:1026B0009A8200BF0C37BD4680BC7047B80004202A
:1026C00080B483B000AF0346FB7197F90730002B4D
:1026D0000BDBFB7903F01F02064997F907305B0912
:1026E000012000FA02F241F8232000BF0C37BD465A
:1026F00080BC704700E100E080B483B000AF0346C7
:10270000FB7197F90730002B10DBFB7903F01F02F8
:10271000094997F907305B09012000FA02F22033DA
:1027200041F82320BFF34F8FBFF36F8F00BF0C37EB
:10273000BD4680BC704700BF00E100E080B584B0BA
:1027400000AFB9607A601A460346FB731346BB7349
:10275000FB7B2549BA6841F82320FB7B23497A6833
:1027600041F82320BB7B002B06D0FB7B204AD356AD
:102770001846FFF7A5FF05E0FB7B1D4AD356184618
:10278000FFF7BAFFFA7BFB7B1A4951F823301A494D
:1027900031F812201A81FA7BFB7B164951F823305D
:1027A000164931F812201A80FA7BFB7B114951F847
:1027B0002330134931F812209A82FA7BFB7B0D49B2
:1027C00051F823300F4931F812201A84FA7BFB7B31
:1027D000084951F823300C4931F812209A8400231B
:1027E00018461037BD4680BDF81404200415042097
:1027F00074A600001C010420F4000420FC00042046
:10280000040104200C0104201401042080B584B0CC
:1028100000AF03463960FB71FB792E4A52F8233032
:102820003A6892881A80FB792A4A52F823303A682B
:10283000D2889A82FB794021184600F09BF8034623
:10284000002B01D0062340E0FB79224A52F82330C6
:102850001B89FB81FB8903F4C043FB813B689B78A8
:102860009AB2FB891343FB813B68DB789BB25B0127
:102870009AB2FB891343FB813B685B78002B03D042
:10288000FB8943F00803FB813B681B78002B03D0D6
:10289000FB8943F00403FB813B681B7A002B03D0C8
:1028A000FB8943F08003FB813B685B7A002B05D0FA
:1028B000FB896FEA43436FEA5343FB81FB79054A87
:1028C00052F82330FA891A81002318461037BD4682
:1028D00080BD00BF1C01042080B582B000AF03465C
:1028E0000A46FB711346BB71FB794021184600F084
:1028F00041F80346002B01D006231FE0FB79114A63
:1029000052F823301B899AB2FB790E4951F82330D3
:1029100022F0100292B21A81BB79002B0DD0FB7904
:10292000084A52F823301B899AB2FB79054951F8BD
:10293000233042F0100292B21A8100231846083761
:10294000BD4680BD1C01042080B483B000AF0346A7
:102950003960FB71FB79064A52F823309B889AB2A2
:102960003B681A80002318460C37BD4680BC704770
:102970001C01042080B485B000AF03460A46FB71F9
:102980001346BB800023FB810FE0FB790C4A52F811
:1029900023309B8B9AB2BB8813409BB2002B01D192
:1029A000002307E0FB890133FB81FB89B3F57A7FC4
:1029B000EBD3062318461437BD4680BC704700BFD2
:1029C0001C01042080B584B000AF0346FB71FB7985
:1029D0001A4A52F823309B8BFB81FB79184A52F834
:1029E0002330002B1FD0FB8903F00103002B0AD0FA
:1029F000FB79134A52F82330FA79124951F8220030
:102A0000002201219847FB8903F00203002B0AD022
:102A1000FB790B4A52F82330FA790A4951F822001F
:102A2000002202219847FB79044A52F823300322FE
:102A30009A8100BF1037BD4680BD00BF1C01042035
:102A4000F81404200415042080B500AF0020FFF71F
:102A5000B9FF00BF80BD80B500AF0120FFF7B2FF16
:102A600000BF80BD80B500AF0220FFF7ABFF00BF05
:102A700080BD000080B483B000AF0346FB7197F9BE
:102A80000730002B0BDBFB7903F01F02064997F997
:102A900007305B09012000FA02F241F8232000BF51
:102AA0000C37BD4680BC704700E100E080B483B0C5
:102AB00000AF0346FB7197F90730002B10DBFB7961
:102AC00003F01F02094997F907305B09012000FA5A
:102AD00002F2203341F82320BFF34F8FBFF36F8FF3
:102AE00000BF0C37BD4680BC704700BF00E100E06E
:102AF00080B483B000AF0346FB7197F90730002B19
:102B00000CDBFB7903F01F02074997F907305B09DB
:102B1000012000FA02F2603341F8232000BF0C3795
:102B2000BD4680BC704700BF00E100E080B588B0C2
:102B300000AFF860B9607A60FB68BB61BB695B6A33
:102B4000DB6A1B697B610023FB61BB68012B02D040
:102B5000022B05D009E0FB6943F48073FB6109E0B7
:102B6000FB6943F48063FB6104E0FB6943F4805339
:102B7000FB6100BF7B691B68002B13D07B695B7B0B
:102B8000002B0FD0BB699A69FB691A43BB699A6134
:102B90007B6900221A73BB695B6A00221946B86917
:102BA00000F027FEBB699A69FB691A43BB699A6109
:102BB000BB695B6A00221946B86900F01AFE00BFC3
:102BC0002037BD4680BD80B588B000AFF860B960E1
:102BD0007A60FB68BB61BB691B6ADB6A1B697B614E
:102BE0000023FB61BB68012B02D0022B05D009E05A
:102BF000FB6943F40073FB6109E0FB6943F4006384
:102C0000FB6104E0FB6943F40053FB6100BF7B6997
:102C10001B68002B13D07B695B7B002B0FD0BB693B
:102C20009A69FB691A43BB699A617B6900221A732E
:102C3000BB691B6A01221946B86900F0DAFDBB695D
:102C40009A69FB691A43BB699A61BB691B6A0122D5
:102C50001946B86900F0CDFD00BF2037BD4680BDE4
:102C600080B586B000AFF8607A603B600B46FB72BF
:102C70000023FB823B6A00221A607B683B613A6852
:102C80000021786803F004FDFB681B016E4A1A44BA
:102C90003B695A606C4AFB681B01134408331A688D
:102CA0003B699A603B69FA7A1A707B6830337B60C3
:102CB000FDF7ECFAFB7A012B3CD03B697A681A628B
:102CC0003B691B6A002283F834203B691A6A3B691E
:102CD0001B6A9A623B691A6A3B691B6A1A633B6901
:102CE0001A6A3B691B6ADA623B691B6A0022DA6373
:102CF0003B691B6A554A9A633B691A6A3B691B6ABE
:102D000014321A613B691A6A3B691B6A5A623B6951
:102D10005B681B783A694E491846FDF7FFFA03468F
:102D2000002B04D0386900F09BF80F2387E07B6804
:102D300040337B60FB7A002B39D03B697A685A625A
:102D40003B695B6A002283F834203B695A6A3B691D
:102D50005B6A9A623B695A6A3B695B6A1A633B69C0
:102D60005A6A3B695B6ADA623B695B6A0022DA6332
:102D70003B695B6A374A9A633B695A6A3B695B6A9B
:102D800014321A613B695A6A3B695B6A5A623B6951
:102D90005B685B783A6930491846FDF7BFFA03462D
:102DA000002B04D0386900F05BF80F2347E0F96886
:102DB000386900F0C7FD3B699B681B8C9BB203F030
:102DC0000103002B14BF01230023DAB23B6983F80F
:102DD0002D203B699B681B8C9BB29B119BB203F01F
:102DE0000303FB82FB8A1D4AD25C3B6983F82E20D9
:102DF0003B6A3A691A60144AFB681B0113440C339E
:102E00003A691A603B695B6893F904301846FFF72A
:102E10006FFE3B695B6893F904301846FFF72AFEA2
:102E20003B695B6893F902301846FFF723FE3B6964
:102E30005B6893F903301846FFF71CFE0023184621
:102E40001837BD4680BD00BF280104202D2F00008B
:102E5000C72B0000953000002D2B000088A6000035
:102E600080B582B000AF78607B689B6800229A8052
:102E70007B685B6893F903301846FFF717FE7B68A1
:102E80005B6893F902301846FFF710FE7B685B68B9
:102E900093F904301846FFF709FE7B685B6800224F
:102EA000DA60002318460837BD4680BD80B584B07F
:102EB00000AFF860B9607A60FB70FB681B6A9B6AC0
:102EC000BA681A60FB681B6A9B6A7A685A60FB687A
:102ED0001B6A9B6A00229A60FB681B6A9B6A01223C
:102EE0001A73FB681B6A9B6AFA785A73FB681B6A41
:102EF0009A6AFB681B6A12699A62FB681B6A93F8FC
:102F00003430002B0DD1FB681B6A022283F8342079
:102F1000FB681B6A9B6BFA68126AD26A1146F868F2
:102F20009847002318461037BD4680BD80B483B053
:102F300000AF786039603B685B7B002B56D07B68C4
:102F40005B681B781946314A01238B40C2F814385C
:102F50007B685B681B7819462C4A01238B4093627F
:102F60007B685B681B781946284A01238B405362B3
:102F70007B685B681B781946244A01238B405363A6
:102F80003B681B681A463B685B681A44204B19680B
:102F90007B685B681B781B010B44013A1A607B68F5
:102FA0009B6819461A4B1A687B685B681B781B0183
:102FB00013440A465A603B685B68013B1B01144A94
:102FC00011687A685268127812010A4443F040434B
:102FD00043F0010393607B689B689B889AB27B688F
:102FE0009B6842F0100292B29A8009E07B689B686D
:102FF0009B889AB27B689B6842F0020292B29A80E8
:1030000000BF0C37BD4680BC704700BF00000140C8
:1030100064A6000080B584B000AFF860B9607A6043
:10302000FB70FB685B6A9B6ABA681A60FB685B6A44
:103030009B6A7A685A60FB685B6A9B6A00229A60A6
:10304000FB685B6A9B6A01221A73FB685B6A9B6A76
:10305000FA785A73FB685B6A9A6AFB685B6A126962
:103060009A62FB685B6A93F83430002B0DD1FB68E1
:103070005B6A022283F83420FB685B6A9B6BFA6808
:10308000526AD26A1146F8689847002318461037EA
:10309000BD4680BD80B483B000AF786039603B68C6
:1030A0005B7B002B56D07B685B685B781946314AA6
:1030B00001238B40C2F81C387B685B685B7819463B
:1030C0002C4A01238B4093627B685B685B781946CE
:1030D000284A01238B4053627B685B685B78194602
:1030E000244A01238B4053637B689B681946224B1B
:1030F0001A687B685B685B781B0113440A461A6098
:103100003B681B681A463B685B681A441A4B19688F
:103110007B685B685B781B010B44013A5A603B6833
:103120005B68013B1B01144A11687A685268527847
:1031300012010A4443F0406343F0010393607B684B
:103140009B689B889AB27B689B6842F0200292B28F
:103150009A8009E07B689B689B889AB27B689B6831
:1031600042F0010292B29A8000BF0C37BD4680BC8B
:10317000704700BF0000014064A6000080B584B025
:1031800000AFF860B9607A60FB70FB681B6A0122CF
:1031900083F83420FB681B6A9B6ABA681A60FB6874
:1031A0001B6A9B6A7A685A60FB681B6A9B6A0022EA
:1031B0009A60FB681B6A9B6A01221A73FB681B6A90
:1031C0009B6AFA785A73FB681B6A9A6AFB681B6AE7
:1031D00012699A62FB681B6A9B6BFA68126AD26A70
:1031E0001146F8689847FB681B6ABA691946F8687F
:1031F00000F005F8034618461037BD4680BD80B57F
:1032000086B000AFF860B9607A60BB683C330022DA
:1032100019460020FDF7F0FC0346FB75FB7D002BF3
:1032200001D001231FE0BB681B6B00221A60BB6842
:103230001B6B1A69BB681A63BB681B6B1B68002B8E
:1032400003D1BB68002283F83420FB689B69002B04
:1032500008D0FB689A697B681A60FB6800229A6153
:103260000D2300E0002318461837BD4680BD80B40A
:1032700085B000AFF860B9607A60FB68BA68DA6060
:10328000FB687A681A61002318461437BD4680BC73
:10329000704780B485B000AF7860084611461A4682
:1032A0000346FB700B46BB7013467B707B689B68C4
:1032B0009B899BB223F00F03FB817A78BB78134381
:1032C000DAB2FB781343DBB29AB2FB891343FB817A
:1032D0007B689B68FA899A81002318461437BD469B
:1032E00080BC704780B485B000AFF86008461146D6
:1032F0001A4603467B810B467B721346FB80FB68B4
:103300009B687A891A857B7A9BB2DB029AB2FB882A
:1033100013439BB2FA6892686FEA43436FEA5343E0
:103320009BB29384FB689B683A7E92B29A85002395
:1033300018461437BD4680BC7047000080B582B087
:1033400000AF054BDB687B60786800F007F800BFD2
:103350000837BD4680BD00BF2801042080B58EB06F
:1033600002AF78607B689B681B899BB203F00E03F9
:103370000C2B00F26C8101A252F823F07134000092
:103380004F360000B13300004F360000CD3300004F
:103390004F360000DD3300004F3600004F3600008E
:1033A0004F3600004F3600004F360000B9330000A2
:1033B000786800F0E1F94DE17B689B689B8E9BB2D9
:1033C000DBB21946786800F071F943E17B6893F845
:1033D0002E301946786800F069F93BE10023FB6262
:1033E0007B689B689B8ABB83BB8B03F010039BB2FB
:1033F000002B05D07B689B681B888023FB6209E05B
:10340000BB8B03F008039BB2002B03D0FB6A43F095
:103410001003FB62BB8B03F004039BB2002B03D0B1
:10342000FB6A43F02003FB62BB8B03F002039BB2F9
:10343000002B03D0FB6A43F04003FB62FB6A002BC6
:1034400000F007817B681B7D83F00103DBB2002B5A
:1034500000F0FF807B689A69FB6A1A437B689A6177
:103460007B685B6A04221946786800F0C2F9F0E0D4
:103470000023BB627B689B68B3F844309BB203F0C7
:103480000F037B837B689B68B3F840309BB203F0EB
:1034900001033B837B8B002B00F0C9803B8B002B0F
:1034A00000F0C58007F10C0319460020FDF748FA2B
:1034B0000346002B01D00023FB607B689B68B3F8B8
:1034C00048309BB21B037B617B689B68B3F8443038
:1034D0009BB21B099BB21A467B6913437B617B8BB2
:1034E00003F00103002B6FD07B689B689B8C9BB221
:1034F00003F40043B3F5004F4DD1002387F8273084
:103500004FF400633B610123FB837B693F2B06D8AB
:103510007B695B02DA083B69D31A3B6228E07B696E
:103520007F2B09D87B691B02DA083B69D31A3B62FF
:10353000012387F827301BE07B69FF2B09D87B69C3
:10354000DB01DA083B69D31A3B62022387F8273094
:103550000EE07B691B0AFB837B699A01FB8BDB0016
:10356000B2FBF3F23B69D31A3B62032387F827309F
:103570003B6A9AB2F98B97F82730009313460122E1
:103580007868FFF7AFFEFB68DA007B69B2FBF3F205
:103590007B689A6206E0FB68DA007B69B2FBF3F2B3
:1035A0007B689A627B68DB68002B3DD07B6893F870
:1035B0002C30002B38D07B68DB687A6810697A6819
:1035C000926A032198472FE07B8B03F00203002BC4
:1035D00003D0BB6A43F40073BB627B8B03F004032C
:1035E000002B03D0BB6A43F48073BB627B8B03F078
:1035F0000803002B03D0BB6A43F48063BB627B6883
:10360000DB68002B0DD07B685B6A93F83430022BAB
:1036100007D17B68DB687A681069BA6A0521984728
:1036200002E07B68BA6ADA617B689B681B887B680A
:103630009B68B3F840309AB27B689B6822F007021F
:1036400092B2A3F840207B6800221A7502E000BF06
:1036500000E000BF00BF3037BD4680BD80B582B0FE
:1036600000AF074BDB687B607B681B6A0122194651
:10367000786800F0BEF800BF0837BD4680BD00BFC7
:103680002801042080B582B000AF074BDB687B6067
:103690007B685B6A00221946786800F0AAF800BFD0
:1036A0000837BD4680BD00BF2801042080B586B024
:1036B00000AF78600B46FB707B685B6ADB6A7B61FE
:1036C0007B691B683B613B69002B05D07B691B7BD9
:1036D000002B01D0012300E00023FB73FB7B03F0F0
:1036E0000103FB73FB7B002B28D00EE07B689B68FB
:1036F0001B8899B27B699B683A691344CAB21A70F5
:103700007B699B685A1C7B699A60FB785A1EFA7029
:10371000002B05D07B699A687B695B689A42E5D388
:103720007B699A687B695B689A4221D17B685B6A96
:1037300000221946786800F05CF819E07B68DB68C5
:10374000002B06D07B68DB687A68106900220221B2
:1037500098477B691B68002B0AD17B691B7B83F030
:103760000103DBB2002B03D07B689B681B8800BF82
:1037700000BF1837BD4680BD80B584B000AF78600B
:103780007B681B6ADB6A1B68002B2ED07B681B6A78
:10379000DB6A1B7B002B28D07B681B6ADB6A1B68FB
:1037A000FB607B681B6ADB6A9B68FA6813441B78C2
:1037B000DAB27B689B6892B21A807B681B6ADB6A0C
:1037C0009A6801329A607B681B6ADB6A9A687B6838
:1037D0001B6ADB6A5B689A4207D37B681B6A01221B
:1037E0001946786800F005F800BF00BF1037BD46E5
:1037F00080BD80B586B000AFF860B9601346FB713C
:10380000BB68DB6A00221A73BB68DB6A1A69BB6893
:10381000DA62FB79012B0AD1FB689B689B889AB21C
:10382000FB689B6822F0120292B29A801BE0FB6850
:103830009B689B889AB2FB689B6822F0200292B238
:103840009A80FB6893F82D3083F00103DBB2002BE4
:1038500009D0FB689B689B889AB2FB689B6822F042
:10386000010292B29A80FB68DB68002B38D0BB68FB
:1038700093F83430022B33D1FB689B697B61FB6882
:1038800000229A61BB681B6B1B683B61BB681B6BAA
:1038900000221A60BB681B6B1A69BB681A63BB689D
:1038A0001B6B1B68002B03D1BB68002283F83420FC
:1038B0007B69002B07D0FB68DB68FA6810697A69BE
:1038C0000421984706E0FB68DB68FA681069F9791B
:1038D0003A699847BB683C331846FDF72BFA20E05D
:1038E000FB79012B0ED100BFFB689B689B8A9BB2C2
:1038F00003F04003402BF7D1FB689B681B8F9BB202
:10390000002BF1D1BB681B6B1B691B68002B03D11B
:10391000BB68002283F83420BB683C331846FDF7AF
:1039200009FABB68DB6A1B7B002B06D0BB689B6B6C
:10393000BA68D26A1146F868984700BF1837BD4682
:1039400080BD000080B485B000AF786039603A680F
:103950001346DB009B1A5B00154A1344FB607B682F
:103960009B68FA6812889A817B689B68FA6852881B
:103970001A857B689B68FA6892889A847B689B6842
:10398000FA68D2889A857B689B68FA6812891A84DB
:103990007B689B68FA6852899A877B689B68FA689B
:1039A00092899A8000BF1437BD4680BC704700BF23
:1039B00078A6000080B483B000AF0346FB7197F98E
:1039C0000730002B0BDBFB7903F01F02064997F948
:1039D00007305B09012000FA02F241F8232000BF02
:1039E0000C37BD4680BC704700E100E080B483B076
:1039F00000AF0346FB7197F90730002B10DBFB7912
:103A000003F01F02094997F907305B09012000FA0A
:103A100002F2203341F82320BFF34F8FBFF36F8FA3
:103A200000BF0C37BD4680BC704700BF00E100E01E
:103A300080B582B000AF78603960084B1B68002BFE
:103A400007D13A680021786802F022FE034A7B68B9
:103A50001360002318460837BD4680BD10150420AA
:103A600080B58AB000AF03460A46FB711346BB71AE
:103A70000023FB61FB799B000F2202FA03F3BB6179
:103A8000FB79052B08D1BB795B0543F480137B627E
:103A9000042387F823300EE0BB7943F00803DBB240
:103AA0001A46FB799B0002FA03F37B62FB79013330
:103AB000DBB287F82330EFF31083FB60FB68FB6118
:103AC00072B60F4B1B687B61BB69DB437A6913409D
:103AD0007B617A697B6A13437B61094A7B69136066
:103AE000FB693B613B6983F3108897F923301846E3
:103AF000FFF760FF002318462837BD4680BD00BF92
:103B000080C0044080B588B000AF0346FB7100233D
:103B1000BB61FB79052B02D10423FB7703E0FB7922
:103B20000133DBB2FB7797F91F301846FFF75EFFD2
:103B3000FB799B000F2202FA03F37B61EFF3108302
:103B4000BB60BB68BB6172B60A4B1B683B617B699B
:103B5000DB433A6913403B61064A3B691360BB692A
:103B6000FB60FB6883F31088002318462037BD46AE
:103B700080BD00BF80C0044080B489B000AF034660
:103B8000B9607A60FB730023FB61EFF310837B6104
:103B90007B69FB6172B60C4B1A68FB7BDB0013443C
:103BA000BA681A60084B1A68FB7BDB0013447A681A
:103BB0005A60FB69BB61BB6983F310880023184618
:103BC0002437BD4680BC70471015042080B582B0F4
:103BD00000AF0346FB71FB790F4A012101FA03F3A1
:103BE00013610E4B1A68FB79DB0013441B68002B32
:103BF0000ED00A4B1A68FB79DB0013441B68074A96
:103C00001168FA79D2000A445068F979002298477D
:103C100000BF0837BD4680BD80C004401015042099
:103C200080B500AF0020FFF7D1FF00BF80BD80B599
:103C300000AF0120FFF7CAFF00BF80BD80B500AF15
:103C40000220FFF7C3FF00BF80BD000080B500AFBA
:103C5000074B5B6803F02003202B03D10520FFF7FF
:103C6000B5FF02E00320FFF7B1FF00BF80BD00BF3A
:103C700080C0044080B582B000AF0A4B7B600A4B25
:103C80003B6007E07A68131D7B603B68191D396053
:103C900012681A603B68054A9342F3D300F076F845
:103CA000FCF79EFAD4A9000000000420F40A0420C6
:103CB00080B400AFFEE7000080B487B000AF2E4BA9
:103CC0001B6803F00303032B50D801A252F823F022
:103CD000E13C0000E93C0000F13C0000593D0000DF
:103CE000264B274A1A603CE0244B254A1A6038E0EC
:103CF000214B1B6803F40063002B02D0204B7B6137
:103D000001E01F4B7B611C4BDB6803F01F033B6131
:103D1000194BDB68DB0A03F00F03FB60164BDB6813
:103D20001B0C03F00103BB60134BDB681B0A03F0A1
:103D300001037B607A69BB6802FA03F33A6902FB0C
:103D400003F2FB68B2FBF3F27B6822FA03F37B61B8
:103D50000A4A7B69136004E00A4B1B68074A136038
:103D600000BF064B1B68084A136000E000BF1C3709
:103D7000BD4680BC704700BF00C30440141504203A
:103D800080BA8C01181504201C15042080B584B05D
:103D900000AF0121062000F01FF8EFF310837B60D5
:103DA0007B68FB6072B60A4B0A4A9A60084B4FF474
:103DB000E0225A62BFF36F8FBFF34F8FFB68BB6087
:103DC000BB6883F3108800BF1037BD4680BD00BFBD
:103DD00000ED00E00000000080B483B000AF786028
:103DE0000B46FB700E4B44F65902DA60FB78002B51
:103DF00007D00B4B5A697B685B08094913434B6139
:103E000007E0074B5A697B685B08DB4304491340B2
:103E10004B61002318460C37BD4680BC704700BF7D
:103E200000C0044080B485B000AFF860B9607A602B
:103E3000034B01221A7000BF1437BD4680BC704787
:103E40002015042090B5C5B000AF3B1D18603B465F
:103E5000196001F0EDFE002387F8F830002387F8A1
:103E6000F930032387F8FA3001F048F807F17C03B2
:103E700000221A605A609A601023FB6707F16803FA
:103E800000221A605A609A602023BB6607F15C0327
:103E900000221A605A609A601F23FB6507F17C02BA
:103EA00007F188031146184600F024FB07F1680269
:103EB00007F178031146184600F01CFB07F15C027D
:103EC00007F174031146184600F014FBD7F8883048
:103ED000184600F053FBBB6F0021184600F07AFB38
:103EE0007B6F0021184600F075FB0023FB64002364
:103EF0007B6507F14C03BB6507F1540207F15003E2
:103F00001146184600F098FCC7F80C01D7F80C31A0
:103F1000002B02DAD7F80C31F2E0D7F888307B6456
:103F2000012387F84830794BBB6307F144033B64B6
:103F30000023FB633B6D07F138020621184600F0B1
:103F4000C7FCC7F80C013B6D184600F091FEC7F89E
:103F50000C01D7F80C31002B02DAD7F80C31CFE086
:103F60003B6D0621184600F0E1FEC7F80C01D7F8BA
:103F70000C31002B02DAD7F80C31C1E0002387F8AE
:103F800000314FF4E133C7F8043107F1F803C7F803
:103F9000083107F5807207F1FC031146184601F05D
:103FA0006DFDC7F80C01D7F80C31002B01D00023B0
:103FB000A6E0574A07F1300392E803001860043383
:103FC0001970544B3B62002387F82430032387F891
:103FD00025300023BB6207F13003FB6207F10C03BD
:103FE0001C4607F120030FCB84E80F0007F10C03F8
:103FF00001221A7407F10C0300225A7407F10C0312
:1040000000229A7407F10C0207F1080311461846C2
:1040100000F083F9C7F80C01D7F80C31002B02DA55
:10402000D7F80C316CE04FF47A7000F047FABB6FB0
:104030000121184600F030FB7B6F0121184600F08B
:104040002BFB354B01221A70334B1B78DBB2002B54
:10405000FAD0314B00221A7007F10803186807F1F3
:10406000F20307F1F40207F1F60100F000F9B7F9E5
:10407000F6301A46B7F9F43007F18C00274902F000
:104080006FFBD7F8FC4007F18C03184602F08AFB5F
:10409000024607F18C031946204601F09BFCB7F954
:1040A000F63041F28832934204DCB7F9F6301C4A0C
:1040B000934205DABB6F0021184600F0EDFA04E0E8
:1040C000BB6F0121184600F0E7FAB7F9F43041F26E
:1040D0008832934204DCB7F9F430114A934205DA8E
:1040E0007B6F0021184600F0D7FA04E07B6F0121B6
:1040F000184600F0D1FA4FF4FA7000F0DFF9A3E7A8
:10410000184607F58A77BD4690BD00BF253E0000E2
:104110009CA60000A0BB0D00201504208CA600006A
:1041200078ECFFFF80B586B000AFF8600B467A6090
:10413000FB7200237B61FB7A63F07F03DBB23B748D
:1041400000237B74FB681B6807F1100102221846EC
:1041500001F04AF878617B69002B02DA4FF0FF33F7
:1041600003E07A7C7B681A70002318461837BD4636
:1041700080BD80B584B000AF78600B46FB701346FD
:10418000BB700023FB60FB7803F07F03DBB23B7264
:10419000BB787B727B681B6807F108010222184616
:1041A00001F022F8F860FB6818461037BD4680BD64
:1041B00080B584B000AF78600B46FB700023FB60D5
:1041C00007F10B031A4611217868FFF7ABFFF8607F
:1041D000FB68002B02DA4FF0FF3316E0FB7A23F086
:1041E0000703DBB2FB7297F9033003F007035AB2FF
:1041F000FB7A5BB213435BB2DBB2FB72FB7A1A460B
:1042000011217868FFF7B5FF034618461037BD4601
:1042100080BD80B584B000AF78600B46FB70002392
:10422000FB6007F10B031A4611217868FFF77AFF4C
:10423000F860FB68002B01DAFB6814E0FB7A03F0FE
:104240000F03DBB2FB72FB781B015AB2FB7A5BB245
:1042500013435BB2DBB2FB72FB7A1A46112178681A
:10426000FFF787FF034618461037BD4680BD80B56F
:1042700086B000AFF860B9607A603B600023FB75E0
:1042800010E0FB7D0833DBB25BB263F07F035AB210
:10429000FB7DD2B207F118010B4403F8082CFB7D1B
:1042A0000133FB75FB7D062BEBD90023FB75FB6807
:1042B0001B6807F110010722184600F095FF03461E
:1042C000002B02D04FF0FF3323E0BB7C1B021AB25D
:1042D0007B7C1BB213431AB2BB681A803B7D1B0266
:1042E0001AB2FB7C1BB213431AB27B681A80BB7DE7
:1042F0001B021AB27B7D1BB213431AB23B681A80B1
:104300003B68B3F900301B011B111AB23B681A80DD
:10431000002318461837BD4680BD80B586B000AF73
:104320007860396000237B610023FB73042001F077
:1043300097FE03463B613B69002B02D16FF00B03F4
:1043400061E03B693A681146184600F0A7FE7861C3
:104350007B69002B48DB07F10F031A4602213869FD
:10436000FFF7E0FE78617B69002B3FDBFB7B922B44
:104370003CD13B681B7C012B0BD1032210213869F7
:10438000FFF7F7FE02467B6913437B617B69002BD5
:104390002EDB3B685B7C19463869FFF709FF024654
:1043A0007B6913437B617B69002B23DB3B689B7C30
:1043B00019463869FFF72DFF02467B6913437B617D
:1043C0007B69002B18DB012212213869FFF7D1FE2F
:1043D00002467B6913437B617B69002B0ED17B68AE
:1043E0003A691A607B690EE000BF08E000BF06E092
:1043F00000BF04E000BF02E000BF00E000BF38697A
:1044000001F036FE7B6918461837BD4680BD0000B6
:1044100080B586B000AF7860396000233B813B688F
:10442000002B01D0144B01E04FF47A73FB600023A2
:104430003B613B68002B0FD007F1080319460F487A
:1044400000F060FF0346002B01D0002310E00B4B6F
:104450001B68184601F03EF807F108031946786812
:1044600000F050FF0346002B01D0002300E00123A1
:1044700018461837BD4680BD40420F002415042061
:1044800080B584B000AF786039600021786801F0B1
:1044900077F9786801F01EF807F10C03194678687F
:1044A00001F090F8FB683A689A42F5D8786801F014
:1044B0004BF800BF1037BD4680BD000080B582B00C
:1044C00000AF78600A4B1B68002B06D1002108481A
:1044D000FFF79EFF0346002B06D0054B1B6879684B
:1044E0001846FFF7CDFF00E000BF0837BD4680BD8E
:1044F0002815042080B582B000AF786039607B68F1
:10450000002B02D03B68002B01D101232EE00C21AF
:10451000012001F033FD03461A467B681A607B6870
:104520001B68002B01D1012320E07B681B683A68DF
:1045300012681A600F4B1B78002B10D110210E4807
:10454000FBF7A0FF0346002B09D07B681B681846C9
:1045500001F08EFD7B6800221A60012306E0054B06
:104560001B780133DAB2034B1A7000231846083760
:10457000BD4680BD3C1504202C15042080B582B0BA
:1045800000AF78607B68002B03D0114B1B78002BA9
:1045900001D1012318E07B681B681B09DBB203F023
:1045A0000F03D8B27B681B6803F00F03012202FAE5
:1045B00003F39BB201221946FCF758F80346002B7F
:1045C00001D0012300E0002318460837BD4680BD16
:1045D0003C15042080B584B000AF78600B46FB70BA
:1045E0007B68002B03D02B4B1B78002B01D10123C0
:1045F0004BE07B681B681B09DBB203F00F03D8B2EA
:104600007B681B6803F00F03012202FA03F39BB2DD
:1046100001221946FBF7F0FF0346FB73FB7B002BDF
:1046200001D0012331E0FB78012B14D17B681B689A
:104630001B09DBB203F00F03D8B27B681B6803F0E1
:104640000F03012202FA03F39BB21946FCF748F864
:104650000346FB7313E07B681B681B09DBB203F0A6
:104660000F03D8B27B681B6803F00F03012202FA24
:1046700003F39BB21946FCF74BF80346FB73FB7B35
:10468000002B01D0012300E0002318461037BD465F
:1046900080BD00BF3C15042080B584B000AF7860B9
:1046A0000B46FB707B68002B03D0434B1B78002B21
:1046B00001D101237BE0FB78012B18D0022B2BD0FA
:1046C000002B59D17B681B681B09DBB203F00F0379
:1046D000D8B27B681B6803F00F03012202FA03F3D0
:1046E0009BB21946FCF714F80346FB7359E07B684C
:1046F0001B681B09DBB203F00F03D8B27B681B6891
:1047000003F00F03012202FA03F39BB21946FBF7F1
:10471000E7FF0346FB7344E07B681B681B09DBB2C1
:1047200003F00F03D8B27B681B6803F00F0301226C
:1047300002FA03F39BB200221946FBF75DFF034622
:10474000FB73FB7B002B01D0012330E07B681B68EF
:104750001B09DBB203F00F03D8B27B681B6803F0C0
:104760000F03012202FA03F39BB200221946FBF762
:104770007DFF0346FB7314E07B681B681B09DBB2FB
:1047800003F00F03D8B27B681B6803F00F0301220C
:1047900002FA03F39BB21946FBF7A2FF0346FB7331
:1047A00000BFFB7B002B01D0012300E00023184653
:1047B0001037BD4680BD00BF3C15042080B483B0D7
:1047C00000AF0346FB7197F90730002B0BDBFB7939
:1047D00003F01F02064997F907305B09012000FA30
:1047E00002F241F8232000BF0C37BD4680BC704761
:1047F00000E100E080B483B000AF0346FB7197F99D
:104800000730002B10DBFB7903F01F02094997F9F1
:1048100007305B09012000FA02F2203341F823201F
:10482000BFF34F8FBFF36F8F00BF0C37BD4680BC07
:10483000704700BF00E100E080B584B000AF786051
:1048400039607B68002B06D03B68002B03D01F4BE0
:104850001B68002B01D0012333E00821012001F067
:104860008DFB03461A467B681A607B681B68002B29
:1048700001D1012325E05C21012001F07FFB0346EB
:10488000FB60FB68002B09D17B681B68184601F0B0
:10489000EFFB7B6800221A60012312E07B681B6833
:1048A000FA685A607B681B683A6812681A60FB688D
:1048B000283330211846FFF7BBF8044B01221A6059
:1048C000002318461037BD4680BD00BF40150420A8
:1048D00080B58CB000AFF860B9607A60FB68002BDF
:1048E0000AD0FB685B68002B06D0804B1B68002B4E
:1048F00002D0BB68072B01D90123F3E07B68002BB2
:1049000005D1B968F86800F0F5F80346EAE0FB68FD
:104910005B68FB62BB68072B00F2DB8001A252F8E8
:1049200023F000BF4549000045490000454900000B
:10493000454900006D4900009F490000DB49000027
:10494000DB4900007B689B68D9B2FB6ABA6803F850
:104950002210674ABB6852F82330D8B27B681968C6
:104960007B685B681A46FFF707F9B4E07B689968D3
:10497000FB6ABA6843F82210FB6ABA6853F822301F
:104980007B617B69002B01D10123ABE07B681A6856
:104990007B699A607B685A687B69DA609BE07B6818
:1049A0009968FB6ABA6843F82210FB6ABA6853F840
:1049B00022301B68FB61FB69002B01D1012391E0D0
:1049C000FB69DB68BB61BB6918687B6819687B6839
:1049D0005B681A46FCF7EAFA7DE0BB68062B01D15A
:1049E000092300E00A2387F82B307B689968FB6A6B
:1049F000BA6843F82210FB6ABA6853F822301B6881
:104A00007B627B6A002B01D101236BE07B681B6812
:104A1000002B08D097F82B007B6819687B685B68CF
:104A20001A46FBF78DFE7B6A1B681B09DBB203F09D
:104A30000F0387F8233097F82B1007F1120297F82D
:104A400023301846FBF780FD7B6A1B6803F00F03D9
:104A5000012202FA03F31AB27B8A1BB213431BB280
:104A60009BB27B8297F82B107A8A97F823301846EE
:104A7000FBF738FD07F1120297F82330114618466C
:104A8000FBF7A2FD7B6A1B6803F00F03012202FA09
:104A900003F31BB2DB431AB27B8A1BB213401BB277
:104AA0009BB27B82FB6ABA6853F822301B791A46A4
:104AB000012393401AB27B8A1BB213431BB29BB2F1
:104AC0007B827A8A97F8233011461846FBF764FDFB
:104AD00001E0012306E0FA6ABB6813442033012297
:104AE0001A70002318463037BD4680BD401504209B
:104AF000A4A6000080B58AB000AF786039607B68FA
:104B0000002B0AD07B685B68002B06D0564B1B68D5
:104B1000002B02D03B68072B01D90123A0E07B6862
:104B20005B683B623B68072B7ED801A252F823F0FA
:104B3000514B0000514B0000514B0000514B000005
:104B4000674B00008B4B0000C34B0000C34B0000C1
:104B5000464A3B6852F82330DBB200220021184657
:104B6000FFF70AF867E03B6A3A6853F82230002BF7
:104B70005CD03B6A3A6853F82230FB60FB68002245
:104B8000DA60FB6800229A6050E03B6A3A6853F8AA
:104B90002230002B4CD03B6A3A6853F822301B6815
:104BA0007B617B69002B01D1012359E07B69DB68C4
:104BB0003B613B691B68002200211846FCF7F6F9AF
:104BC00036E03B68062B01D1092300E00A23FB777E
:104BD0003B6A3A6853F82230002B2BD03B6A3A6884
:104BE00053F822301B68BB61BB69002B01D1012344
:104BF00036E0FB7F002200211846FBF7A1FD0023D1
:104C000087F827300BE0F97F97F827300022184605
:104C1000FBF768FC97F82730013387F8273097F8BF
:104C20002730022BEFD905E0012319E000BF02E095
:104C300000BF00E000BF3B6A3A68002143F8221041
:104C40003B6A3A68002103F822103A6A3B68134431
:104C5000203300221A703968786800F0E3F80346C0
:104C600018462837BD4680BD40150420A4A6000084
:104C700080B584B000AF78607B68002B07D07B687C
:104C80005B68002B03D0284B1B68002B01D101234C
:104C900045E07B685B68BB600023FB6013E0BB689A
:104CA0009A6D0121FB6801FA03F31340002B07D032
:104CB000FB68DBB20133DBB25BB21846FFF77EFD67
:104CC000FB680133FB60FB68032BE8D9BB689B6D75
:104CD00003F01003002B03D00421786800F026F8BD
:104CE000BB689B6D03F02003002B03D0052178687F
:104CF00000F01CF8BB689B6D03F04003002B03D051
:104D00000621786800F012F8BB689B6D03F0800301
:104D1000002B03D00721786800F008F8002318461C
:104D20001037BD4680BD00BF4015042080B586B059
:104D300000AF786039607B68002B0AD07B685B68C5
:104D4000002B06D0354B1B68002B02D03B68072B8D
:104D500001D901235DE07B685B687B617A693B6810
:104D6000134420331B7883F00103DBB2002B01D006
:104D700001234EE03B68032B0CD8294A3B6852F8CC
:104D80002330D8B27B693A6813F822301946FEF70F
:104D900067FE34E03B68042B03D10E20FFF70EFDC5
:104DA0002DE03B68052B18D17B693A6853F8223017
:104DB000002B12D07B693A6853F822301B68DB68FD
:104DC0003B613B6918687B693A6853F822305B683D
:104DD00001221946FBF7DCFF11E03B68062B02D0ED
:104DE0003B68072B0BD13B68062B01D1092300E060
:104DF0000A23FB7397F90F301846FFF7DFFC7B6936
:104E00009A6D01213B6801FA03F31A437B699A65A5
:104E1000002318461837BD4680BD00BF401504204A
:104E2000A4A6000080B586B000AF786039607B68CA
:104E3000002B0AD07B685B68002B06D02D4B1B68CB
:104E4000002B02D03B68072B01D901234EE07B6881
:104E50005B687B613B68032B08D8274A3B6852F8A4
:104E60002330DBB21846FEF74DFE34E03B68042BDE
:104E700003D10E20FFF7BEFC2DE03B68052B18D1B7
:104E80007B693A6853F82230002B12D07B693A686C
:104E900053F822301B68DB683B613B6918687B690B
:104EA0003A6853F822305B6800221946FBF770FF1E
:104EB00011E03B68062B02D03B68072B0BD13B6807
:104EC000062B01D1092300E00A23FB7397F90F3069
:104ED0001846FFF78FFC7B699A6D01213B6801FA48
:104EE00003F3DB431A407B699A65002318461837A1
:104EF000BD4680BD40150420A4A6000080B582B048
:104F000000AFFBF7BFFC03467B607B68002B01D042
:104F100001230FE001210120FBF746FD03467B60E2
:104F20007B68002B01D0012304E001210020FBF766
:104F30003BFD034618460837BD4680BD80B586B0A8
:104F400000AFF860B9601346FB71BB68DB687B613A
:104F5000FB79002B05D1BB681A68FB685B6B9A4232
:104F600020D0FB68DA6ABB681B6819461046FCF75C
:104F70002AFC0346002B01D001238BE0FB79002B98
:104F800010D0FB68DA6AFB68343319461046FCF728
:104F90004AFC0346002B01D001237BE0FB685A6BDF
:104FA000BB681A60FB79002B06D1BB681A79FB68D5
:104FB00093F838309A420CD0FB68DA6ABB681B79E8
:104FC00019461046FCF77AFCBB681A79FB6883F82F
:104FD0003820FB79002B06D1BB685A79FB6893F81F
:104FE00039309A4222D0FB68DA6ABB685B7903F0F9
:104FF0000103002B14BF01230023DBB21946104626
:10500000FCF76CFCFB68DA6ABB685B7903F00203AF
:10501000002B14BF01230023DBB219461046FCF716
:1050200029FCBB685A79FB6883F83920FB79002B8F
:1050300006D17B695A78FB6893F83A309A4211D0CE
:10504000FB68DA6A7B695B78002B14BF01230023BD
:10505000DBB219461046FCF775FB7B695A78FB6892
:1050600083F83A20FB79002B06D17B699A78FB689C
:1050700093F83B309A420CD0FB68DA6A7B699B78E4
:1050800019461046FCF73AFB7B699A78FB6883F86F
:105090003B20002318461837BD4680BD80B586B03A
:1050A00000AF786039607B68002B06D03B68002B2E
:1050B00003D03B68DB68002B01D101238EE03B6805
:1050C000DB683B613B691B78022B03D83B681B798B
:1050D000032B01D9012381E01021012000F04EFFB4
:1050E0000346FB60FB68002B01D1012376E00C2115
:1050F000012000F043FF0346BB60BB68002B04D1D6
:10510000F86800F0B5FF012368E0BB683A691068F1
:10511000186012791A71FB68BA68DA603B681B790B
:105120001A4601239340DAB2FB681A713B681A6889
:10513000FB681A603B685A79FB685A713B691B78B7
:105140001A46284B53F822307B617B69002B2BD108
:105150003C21012000F012FF03467B617B69002B9C
:1051600007D1F86800F084FFB86800F081FF0123E0
:1051700034E03B691B78184679697B692C332C2213
:10518000FCF746FA0346002B1BD10122F968786927
:10519000FFF7D4FE0346002B15D13B691B78194657
:1051A000104A7B6942F821307B691B6B5A1C7B6972
:1051B0001A63BB687A699A607B68FA681A60002390
:1051C0000CE000BF00E000BF786900F051FFF86814
:1051D00000F04EFFB86800F04BFF01231846183767
:1051E000BD4680BD4415042080B58AB000AFF8608C
:1051F000B9601346FB80FB68002B01D1012366E0F8
:10520000FB68DB683B623B6A9B68002B01D1012392
:105210005DE03B6A9B680022F9681846FFF78EFE46
:105220000346002B01D0012351E0FB88002B01D164
:1052300001234CE001233B7701237B773B6A1B79F9
:10524000BB773B6ADB78FB773DE03B6A1B79002B41
:1052500007D0FB88B3F5006F38BF4FF40063FB84C1
:1052600001E0FB88FB84FB8C3B83BB683B61FB8CD0
:105270007B83BB687B613B6A5B78012B0DD13B6A0A
:105280009B68DB6A07F1100211461846FCF74AFBDF
:105290000346002B0FD0012319E03B6A9B68DB6AB1
:1052A00007F1100211461846FCF7D2FF0346002B07
:1052B00001D001230BE0FB8CBA681344BB60FA8871
:1052C000FB8CD31AFB80FB88002BBED10023184631
:1052D0002837BD4680BD000090B484B000AFF860B0
:1052E000B9607A60064BD3E900124B1C42F100040E
:1052F000034AC2E9003400BF1037BD4690BC704776
:105300005015042080B586B000AF786039607B68A6
:10531000002B07D03B68002B04D03B685B683A4AFF
:10532000934201D901236AE01021012000F026FEFA
:1053300003461A467B681A607B681B68002B01D104
:1053400001235CE01021012000F018FE03467B6180
:105350007B69002B09D17B681B68184600F088FE2A
:105360007B6800221A60012349E0284B1B68002B50
:105370002BD13B681B881A46254B1A60244B1B68AF
:10538000D8B2012300222349FDF7D8F900233B724C
:1053900001237B720023BB720123FB7246F2905300
:1053A000BB8146F29053FB8101233B7401237B7444
:1053B00000BF174B1B68DBB207F108021146184605
:1053C000FDF724FA0346062BF3D0104B1B6801337C
:1053D0000E4A13600E4B1A687B681B6892B21A80E3
:1053E0007B681B687A69DA607B681B683A68526878
:1053F0005A607B681B683A6892689A600023184676
:105400001837BD4680BD00BF40420F00581504202C
:1054100060150420D9520000F0B585B000AF786067
:105420000023FB817B685B68B3F57A7F41D9264B0B
:105430001B68DBB207F10E0211461846FDF784FA2D
:10544000224BD3E900562B4634464FF000014FF073
:105450000002620142EAD36259010B4614465B1B0B
:1054600064EB06044FF000014FF00002A20042EA94
:10547000937299000B4614465B1944EB06044FF0F7
:1054800000014FF00002E20042EA5372D9000B46DD
:10549000144619462246FB89C3F5CB4310330C480A
:1054A000A0FB0303DB084FF000045D1844EB020689
:1054B00002E0064BD3E900562B46344618462146F7
:1054C0001437BD46F0BD00BF601504205015042000
:1054D0004FECC44E90B585B000AF78607B68002B70
:1054E00001D1012328E07B68DB68FB60FB681B7A45
:1054F000002B01D001231FE0114B1B68002B0AD1A8
:1055000000BF104B1B68DBB201211846FDF7E4F920
:105510000346062BF5D07868FFF77EFF03460C465E
:10552000FA68C2E90034FB6801221A72044B1B6856
:105530000133034A1360002318461437BD4690BD5B
:105540005C1504206015042080B584B000AF78603D
:105550007B68002B01D101232CE07B68DB68FB60BA
:10556000FB681B7A83F00103DBB2002B01D001231F
:1055700020E007F108031946786800F023F8BA68BC
:105580007B689A600D4B1B68012B0AD100BF0C4B46
:105590001B68DBB200211846FDF79EF90346062B77
:1055A000F5D0064B1B68013B044A1360FB680022E0
:1055B0001A72002318461037BD4680BD5C150420C2
:1055C00060150420F0B58DB000AF786039607B685D
:1055D000002B02D03B68002B01D10123C4E07B6883
:1055E000DB687B627B6A1B7A83F00103DBB2002BF2
:1055F00005D07B689A683B681A600023B4E05C4B76
:1056000018CBC7E906347B685B68B3F57A7F7CD931
:10561000584B1B68DBB207F10E0211461846FDF726
:1056200093F9FB89C3F5CB431033534AA2FB032301
:10563000DB089BB2FB81D7E906562B4634464FF078
:1056400000014FF00002620142EAD36259010B46A9
:1056500014465B1B64EB06044FF000014FF00002A0
:10566000A20042EA937299000B4614465B1944EB80
:1056700006044FF000014FF00002E20042EA5372CC
:10568000D9000B46144619462246FB899DB24FF0BD
:1056900000066B1846EB0204C7E90A347B6A18CB94
:1056A000D7E90A12A24208BF994207D2D7E90A34C1
:1056B00013F57A7144F10002C7E90A127B6AD3E953
:1056C0000056D7E90A120B4614465B1B64EB06042E
:1056D000C7E904347B685B684FF000043A6904FB57
:1056E00002F17A6903FB02F20A443969A1FB030162
:1056F00053181946214A4FF0000300F0BDFA034643
:105700000C461A463B681A6026E07B6AD3E90056CD
:10571000D7E906120B4614465B1B64EB0604C7E987
:1057200004347B685B684FF000043A6904FB02F1C3
:105730007A6903FB02F20A443969A1FB0301531899
:1057400019464FF47A724FF0000300F095FA0346C1
:105750000C461A463B681A603B681A687B689B686F
:105760001A443B681A60002318463437BD46F0BD22
:1057700050150420601504204FECC44E40420F0029
:1057800090B585B000AF786039607B68002B03D09E
:105790007B68DB68002B01D101230EE07B68DB68AE
:1057A000FB607868FFF738FE03460C46FA68C2E9EA
:1057B00000347B683A689A60002318461437BD4667
:1057C00090BD80B584B000AF1421012000F0D6FB5D
:1057D0000346FB60FB68002B01D1002336E0282143
:1057E000012000F0CBFB0346BB60BB68002B04D15B
:1057F000F86800F03DFC002328E0FB68BA681A61F5
:10580000B321012000F0BAFB03461A46BB689A6038
:10581000BB689B68002B07D1B86800F029FCF868CA
:1058200000F026FC002311E0BB689B687B607B686E
:10583000033323F003031A46BB689A60BB689B6876
:105840001A467B68D21ABB68DA60FB6818461037C4
:10585000BD4680BD80B584B000AF78607B681B69B1
:10586000FB60FB689B681A46FB68DB68D31A184626
:1058700000F0FEFBFB6800229A60FB680022DA6001
:105880007B681B69184600F0F3FB786800F0F0FBBA
:1058900000BF1037BD4680BD80B588B000AFF8604E
:1058A000B9607A60FB68FB61FB691B69BB61BB681F
:1058B000002B02D0012B35D069E0BB695B6A002B5D
:1058C00021D0BB695B6AB3F5806F28BF4FF480635A
:1058D0007B61BB695A6A7B69D21ABB695A62BB6930
:1058E0001868BB69196A7B69042B8CBF01230023EC
:1058F000DBB27A69FDF78EFBBB691A6A7B691A44D1
:10590000BB691A625DE0BB6900221A77FB699B687C
:10591000002B56D0FB699B68FA69D06800220121F0
:1059200098474EE0BB699B69002B21D0BB699B69FE
:10593000B3F5806F28BF4FF480637B61BB699A69C0
:105940007B69D21ABB699A61BB691868BB695969DE
:105950007B69042B8CBF01230023DBB27A69FDF73E
:10596000A5FABB695A697B691A44BB695A612AE086
:10597000BB6900221A74FB699B68002B23D0FB696A
:105980009B68FA69D0680022002198471BE0BB6938
:105990009A887B689BB213439AB2BB699A80BB69B1
:1059A00000221A77BB6900221A74FB699B68002BDE
:1059B0000BD0FB699B68FA69D0687A680221984726
:1059C00003E000BF02E000BF00E000BF00BF2037DF
:1059D000BD4680BD80B58AB002AFF860B9607A601C
:1059E000FB68002B05D0BB68002B02D07B68002B26
:1059F00001D101233DE0FB681B697B6100BF7B692E
:105A00001B7C002BFBD10023BB6123E07B68B3F53B
:105A1000806F28BF4FF48063FB617B691868BA68A8
:105A2000BB69D1187B68042B8CBF01230023DAB239
:105A300007F1100300931346FA69FDF79FFB034635
:105A4000002B0CD17A68FB69D31A7B60BA69FB69B9
:105A50001344BB617B68002BD8D1FB6909E000BF10
:105A60007B699A883B699BB213439AB27B699A809F
:105A7000012318462037BD4680BD0000F0B58BB02D
:105A800002AF786039607B68002B12D03B68002B36
:105A90000FD03B689B68002B0BD03B681B78002B1A
:105AA00007D13B681B781A465D4B53F82230002B18
:105AB00001D00123B0E03B681B781946584B012206
:105AC00043F82120FFF77DFE02467B681A607B6861
:105AD0001B68002B01D101239EE07B681B681B69BA
:105AE000BB613B689B687B617B681B683A68526856
:105AF0005A607B681B683A6812781A703B681B789A
:105B00001846BB699A68BB690093B0230221FDF770
:105B1000A7F80346FB74FB7C002B6DD1BB691868AA
